:020000040800F2
:1000000000000220B53E0008053F0008053F00083B
:10001000053F0008053F0008053F000800000000FC
:10002000000000000000000000000000E9390008A6
:10003000053F000800000000EB390008ED3900081A
:10004000053F0008053F0008053F0008053F000880
:10005000053F0008053F0008053F0008053F000870
:10006000053F0008053F0008053F0008053F000860
:10007000053F0008053F0008053F0008053F000850
:10008000053F0008053F0008053F0008053F000840
:10009000053F0008053F0008053F0008053F000830
:1000A000053F0008053F0008053F0008053F000820
:1000B000053F0008053F0008053F0008053F000810
:1000C000053F0008053F0008053F0008053F000800
:1000D000053F0008053F0008053F0008053F0008F0
:1000E000053F0008053F0008053F0008053F0008E0
:1000F000053F0008053F0008053F0008053F0008D0
:10010000053F0008053F0008053F0008053F0008BF
:10011000053F0008053F0008FD390008053F0008BD
:10012000053F0008053F0008053F0008053F00089F
:10013000053F0008053F0008053F0008053F00088F
:10014000053F0008053F0008053F0008093A000880
:10015000053F0008053F0008053F0008053F00086F
:10016000053F0008053F0008053F0008053F00085F
:10017000053F0008053F0008053F0008000000009B
:08018000053F0008053F0008DF
:1001900010B5054C237833B9044B13B10448AFF3C1
:1001A00000800123237010BD3803002000000000F0
:1001B000E864000808B5034B1BB103490348AFF3DB
:1001C000008008BD000000003C030020E864000837
:1001D000034613F8012B002AFBD1181A0138704787
:1001E00001F0FF01102A2BDB10F0070F08D010F8E8
:1001F000013B013A8B422DD010F0070F42B3F6D1EC
:10020000F0B441EA012141EA014122F007047FF004
:1002100000070023F0E80256083C85EA010586EA5B
:10022000010685FA47F5A3FA87F586FA47F6A5FA97
:1002300087F68EB9EED1F0BC01F0FF0102F00702A3
:1002400032B110F8013B013A83EA010313B1F8D14E
:100250000020704701387047002D06BF354603382F
:10026000073815F0010F07D1013015F4807F02BF68
:10027000013015F4C03F0130F0BC0138704700BFB9
:1002800081F0004102E000BF83F0004330B54FEA47
:1002900041044FEA430594EA050F08BF90EA020FB4
:1002A0001FBF54EA000C55EA020C7FEA645C7FEA47
:1002B000655C00F0E2804FEA5454D4EB5555B8BF6A
:1002C0006D420CDD2C4480EA020281EA030382EADB
:1002D000000083EA010180EA020281EA0303362D6D
:1002E00088BF30BD11F0004F4FEA01314FF4801C40
:1002F0004CEA113102D0404261EB410113F0004F52
:100300004FEA03334CEA133302D0524263EB430308
:1003100094EA050F00F0A780A4F10104D5F1200EA6
:100320000DDB02FA0EFC22FA05F2801841F1000101
:1003300003FA0EF2801843FA05F359410EE0A5F1D5
:1003400020050EF1200E012A03FA0EFC28BF4CF006
:10035000020C43FA05F3C01851EBE37101F00045BC
:1003600007D54FF0000EDCF1000C7EEB00006EEBC9
:100370000101B1F5801F1BD3B1F5001F0CD3490853
:100380005FEA30004FEA3C0C04F101044FEA4452AA
:1003900012F5800F80F09A80BCF1004F08BF5FEA31
:1003A000500C50F1000041EB045141EA050130BD11
:1003B0005FEA4C0C404141EB010111F4801FA4F1B4
:1003C0000104E9D191F0000F04BF01460020B1FA09
:1003D00081F308BF2033A3F10B03B3F120020CDA41
:1003E0000C3208DD02F1140CC2F10C0201FA0CF01F
:1003F00021FA02F10CE002F11402D8BFC2F1200C84
:1004000001FA02F120FA0CFCDCBF41EA0C01904039
:10041000E41AA2BF01EB0451294330BD6FEA040482
:100420001F3C1CDA0C340EDC04F11404C4F120026D
:1004300020FA04F001FA02F340EA030021FA04F37F
:1004400045EA030130BDC4F10C04C4F1200220FAD6
:1004500002F001FA04F340EA0300294630BD21FA14
:1004600004F0294630BD94F0000F83F4801306BFDA
:1004700081F480110134013D4EE77FEA645C18BFCE
:100480007FEA655C29D094EA050F08BF90EA020F65
:1004900005D054EA000C04BF1946104630BD91EA5D
:1004A000030F1EBF0021002030BD5FEA545C05D160
:1004B0004000494128BF41F0004130BD14F580049F
:1004C0003CBF01F5801130BD01F0004545F0FE4113
:1004D00041F470014FF0000030BD7FEA645C1ABF48
:1004E000194610467FEA655C1CBF0B46024650EA7F
:1004F000013406BF52EA033591EA030F41F40021AB
:1005000030BD00BF90F0000F04BF0021704730B530
:100510004FF4806404F132044FF000054FF0000105
:1005200050E700BF90F0000F04BF0021704730B5C6
:100530004FF4806404F1320410F0004548BF40429B
:100540004FF000013EE700BF42004FEAE2014FEAF0
:1005500031014FEA02701FBF12F07F4393F07F4FCB
:1005600081F06051704792F0000F14BF93F07F4FFD
:10057000704730B54FF4607401F0004521F0004140
:1005800020E700BF50EA010208BF704730B54FF0C6
:1005900000050AE050EA010208BF704730B511F0CB
:1005A000004502D5404261EB41014FF4806404F103
:1005B00032045FEA915C3FF4DCAE4FF003025FEA85
:1005C000DC0C18BF03325FEADC0C18BF033202EB0D
:1005D000DC02C2F1200300FA03FC20FA02F001FA67
:1005E00003FE40EA0E0021FA02F11444C1E600BF06
:1005F00070B54FF0FF0C4CF4E06C1CEA11541DBFB9
:100600001CEA135594EA0C0F95EA0C0F00F0DEF883
:100610002C4481EA030621EA4C5123EA4C5350EA68
:10062000013518BF52EA033541F4801143F48013B9
:1006300038D0A0FB02CE4FF00005E1FB02E506F04A
:100640000042E0FB03E54FF00006E1FB03569CF09F
:10065000000F18BF4EF0010EA4F1FF04B6F5007FA5
:1006600064F5407404D25FEA4E0E6D4146EB060617
:1006700042EAC62141EA55514FEAC52040EA5E50A0
:100680004FEACE2EB4F1FD0C88BFBCF5E06F1ED84A
:10069000BEF1004F08BF5FEA500E50F1000041EB81
:1006A000045170BD06F0004646EA010140EA02002E
:1006B00081EA0301B4EB5C04C2BFD4EB0C0541EA50
:1006C000045170BD41F480114FF0000E013C00F365
:1006D000AB8014F1360FDEBF002001F0004170BD89
:1006E000C4F10004203C35DA0C341BDC04F11404A2
:1006F000C4F1200500FA05F320FA04F001FA05F22E
:1007000040EA020001F0004221F0004110EBD370FA
:1007100021FA04F642EB06015EEA430E08BF20EA26
:10072000D37070BDC4F10C04C4F1200500FA04F3C9
:1007300020FA05F001FA04F240EA020001F000415B
:1007400010EBD37041F100015EEA430E08BF20EACE
:10075000D37070BDC4F1200500FA05F24EEA020E16
:1007600020FA04F301FA05F243EA020321FA04F045
:1007700001F0004121FA04F220EA020000EBD370FC
:100780005EEA430E08BF20EAD37070BD94F0000FFC
:100790000FD101F00046400041EB010111F4801F30
:1007A00008BF013CF7D041EA060195F0000F18BFE1
:1007B000704703F00046520043EB030313F4801F1D
:1007C00008BF013DF7D043EA0603704794EA0C0FD7
:1007D0000CEA135518BF95EA0C0F0CD050EA4106ED
:1007E00018BF52EA4306D1D181EA030101F000416A
:1007F0004FF0000070BD50EA410606BF1046194692
:1008000052EA430619D094EA0C0F02D150EA01369D
:1008100013D195EA0C0F05D152EA03361CBF1046DE
:1008200019460AD181EA030101F0004141F0FE417D
:1008300041F470014FF0000070BD41F0FE4141F401
:10084000780170BD70B54FF0FF0C4CF4E06C1CEA01
:1008500011541DBF1CEA135594EA0C0F95EA0C0FB6
:1008600000F0A7F8A4EB050481EA030E52EA033571
:100870004FEA013100F088804FEA03334FF0805592
:1008800045EA131343EA12634FEA022245EA1115BF
:1008900045EA10654FEA00260EF000419D4208BF70
:1008A000964244F1FD0404F5407402D25B084FEA1D
:1008B0003202B61A65EB03055B084FEA32024FF4C9
:1008C00080104FF4002CB6EB020E75EB030E22BF26
:1008D000B61A754640EA0C005B084FEA3202B6EBE6
:1008E000020E75EB030E22BFB61A754640EA5C0095
:1008F0005B084FEA3202B6EB020E75EB030E22BF25
:10090000B61A754640EA9C005B084FEA3202B6EB25
:10091000020E75EB030E22BFB61A754640EADC00E4
:1009200055EA060E18D04FEA051545EA16754FEA46
:1009300006164FEAC30343EA52734FEAC2025FEA64
:100940001C1CC0D111F4801F0BD141EA00014FF0F3
:1009500000004FF0004CB6E711F4801F04BF0143C4
:100960000020B4F1FD0C88BFBCF5E06F3FF6AFAEE0
:10097000B5EB030C04BFB6EB020C5FEA500C50F170
:10098000000041EB045170BD0EF0004E4EEA1131F3
:1009900014EB5C04C2BFD4EB0C0541EA045170BDFA
:1009A00041F480114FF0000E013C90E645EA060E3E
:1009B0008DE60CEA135594EA0C0F08BF95EA0C0F6C
:1009C0003FF43BAF94EA0C0F0AD150EA01347FF4B4
:1009D00034AF95EA0C0F7FF425AF104619462CE78B
:1009E00095EA0C0F06D152EA03353FF4FDAE1046EE
:1009F000194622E750EA410618BF52EA43067FF43F
:100A0000C5AE50EA41047FF40DAF52EA43057FF4CE
:100A1000EBAE12E74FF0FF3C06E000BF4FF0010CD9
:100A200002E000BF4FF0010C4DF804CD4FEA410C3D
:100A30007FEA6C5C4FEA430C18BF7FEA6C5C1BD00A
:100A400001B050EA410C0CBF52EA430C91EA030F8B
:100A500002BF90EA020F0020704710F1000F91EAE8
:100A6000030F58BF994208BF90422CBFD8176FEAB6
:100A7000E37040F0010070474FEA410C7FEA6C5C84
:100A800002D150EA013C07D14FEA430C7FEA6C5C8B
:100A9000D6D152EA033CD3D05DF8040B704700BFB7
:100AA0008446104662468C461946634600E000BF05
:100AB00001B5FFF7B7FF002848BF10F1000F01BDD7
:100AC0004DF808EDFFF7F4FF0CBF012000205DF8A2
:100AD00008FB00BF4DF808EDFFF7EAFF34BF012027
:100AE00000205DF808FB00BF4DF808EDFFF7E0FFC0
:100AF00094BF012000205DF808FB00BF4DF808ED11
:100B0000FFF7CEFF94BF012000205DF808FB00BF77
:100B10004DF808EDFFF7C4FF34BF012000205DF859
:100B200008FB00BF4FEA410C7FEA6C5C02D150EA3F
:100B3000013C0AD14FEA430C7FEA6C5C02D152EAD5
:100B4000033C02D14FF0000070474FF001007047A6
:100B50004FEA410212F5001215D211D56FF47873E5
:100B6000B3EB625212D94FEAC12343F0004343EA88
:100B7000505311F0004F23FA02F018BF4042704763
:100B80004FF00000704750EA013005D111F00040ED
:100B900008BF6FF0004070474FF00000704700BF83
:100BA0004A0011D212F5001211D20DD56FF47873EC
:100BB000B3EB62520ED44FEAC12343F0004343EA41
:100BC000505323FA02F070474FF00000704750EA8C
:100BD000013002D14FF0FF3070474FF000007047F6
:100BE0004FEA4102B2F1E04324BFB3F5001CDCF14F
:100BF000FE5C0DD901F0004C4FEAC0024CEA507087
:100C0000B2F1004F40EB830008BF20F001007047B5
:100C100011F0804F21D113F13872BCBF01F00040B8
:100C2000704741F480114FEA5252C2F11802C2F1EA
:100C3000200C10FA0CF320FA02F018BF40F001006B
:100C40004FEAC1234FEAD32303FA0CFC40EA0C001D
:100C500023FA02F34FEA4303CCE77FEA625307D15A
:100C600050EA01331EBF4FF0FE4040F44000704791
:100C700001F0004040F0FE4040F40000704700BF2B
:100C800053B94AB9002908BF00281CBF4FF0FF31F3
:100C90004FF0FF3000F07AB9ADF1080C6DE904CEE9
:100CA00000F006F8DDF804E0DDE9022304B0704747
:100CB0002DE9F0478C460D460446089E002B51D185
:100CC0008A4217466DD9B2FA82FEBEF1000F0BD0F0
:100CD000CEF1200C01FA0EF520FA0CFC02FA0EF708
:100CE0004CEA050C00FA0EF44FEA174A250CBCFB3F
:100CF000FAF81FFA87F90AFB18CC45EA0C4508FBFD
:100D000009F3AB420AD9ED1908F1FF3280F02381D3
:100D1000AB4240F22081A8F102083D44ED1AA4B292
:100D2000B5FBFAF00AFB105544EA054400FB09F94B
:100D3000A14509D9E41900F1FF3380F00A81A145EA
:100D400040F2078102383C44A4EB090440EA084021
:100D50000021002E61D024FA0EF400233460736069
:100D6000BDE8F0878B4207D9002E54D0002186E8D9
:100D700021000846BDE8F087B3FA83F1002940F06E
:100D80008E80AB4202D3824200F2FA80841A65EB75
:100D900003050120AC46002E3FD086E81010BDE8C8
:100DA000F08712B90127B7FBF2F7B7FA87FEBEF159
:100DB000000F34D1EB1B3A0C1FFA87FC0121B3FB67
:100DC000F2F8250C02FB183345EA03450CFB08F347
:100DD000AB4207D9ED1908F1FF3002D2AB4200F265
:100DE000D1808046ED1AA3B2B5FBF2F002FB10559C
:100DF00043EA05440CFB00FCA44507D9E41900F1C3
:100E0000FF3302D2A44500F2B8801846A4EB0C04CC
:100E100040EA08409DE731463046BDE8F087CEF114
:100E2000200405FA0EF307FA0EF720FA04F83A0C3C
:100E300025FA04F448EA0308B4FBF2F14FEA184536
:100E400002FB11441FFA87FC45EA044501FB0CF341
:100E5000AB4200FA0EF409D9ED1901F1FF3080F030
:100E60008A80AB4240F2878002393D44EB1A1FFA78
:100E700088F5B3FBF2F002FB103345EA034500FBB3
:100E80000CF3AB4207D9ED1900F1FF386FD2AB423A
:100E90006DD902383D44EB1A40EA01418FE7C1F1B8
:100EA000200722FA07F88B4005FA01F448EA030309
:100EB00020FA07FE4FEA134CFD404EEA040EB5FB44
:100EC000FCF94FEA1E440CFB19551FFA83F844EA5B
:100ED000054509FB08F4AC4202FA01F200FA01FAF6
:100EE00008D9ED1809F1FF3043D2AC4241D9A9F13C
:100EF00002091D442D1B1FFA8EFEB5FBFCF00CFBF6
:100F000010554EEA054400FB08F8A04507D9E4183F
:100F100000F1FF3529D2A04527D902381C4440EA08
:100F20000940A4EB0804A0FB02894C45C6464D4687
:100F300015D312D056B1BAEB0E0364EB050404FAD4
:100F400007F7CB401F43CC40376074600021BDE8F9
:100F5000F0871846F8E69046E0E6C245EAD2B8EBDC
:100F6000020E69EB03050138E4E72846D7E740465F
:100F700091E78146BEE7014678E702383C4445E701
:100F8000084608E7A8F102083D442BE7704700BF78
:100F900038B50E4A0E4B054618784FF47A73B3FBFA
:100FA000F0F31068B0FBF3F000F0A8F8044658B96D
:100FB0000F2D09D8024629464FF0FF3000F05EF8A9
:100FC000044B20461D6038BD012038BD20010020A3
:100FD000000000200400002008B50B4B1A6842F402
:100FE00000721A601A6842F480621A601A6842F449
:100FF00080721A60032000F02FF80020FFF7C8FF6E
:1010000002F08CFC002008BD003C0240034A044B67
:1010100011681B780B441360704700BF6403002005
:1010200000000020014B1868704700BF64030020D7
:1010300038B50446FFF7F6FF631C1CBF054B1B7851
:10104000054618BFE418FFF7EDFF401B8442FAD8AD
:1010500038BD00BF00000020074AD36823F4E063D6
:101060001B041B0C43F0BF63000243F4003300F485
:10107000E0600343D360704700ED00E0174B30B5EC
:10108000DC68C4F30224C4F10703251D042B28BF28
:101090000423062D4FF0010505FA03F303F1FF3396
:1010A0008CBF033C00241940A14005FA04F4013C24
:1010B0002240002842EA01024FEA0212AFBF00F1CB
:1010C000604000F00F00064BD2B2A5BF00F56140B2
:1010D000D2B21A5480F8002330BD00BF00ED00E00A
:1010E00014ED00E04209012300F01F0003FA00F0B4
:1010F000014B43F82200704700E100E00138B0F1F5
:10110000807F0AD2064B074A5860F02182F82310EC
:101110000020072298601A6070470120704700BFC6
:1011200010E000E000ED00E0044B1A6804280CBF5A
:1011300042F0040222F004021A60704710E000E05E
:10114000704708B5FFF7FCFF08BD00002DE9F04F20
:1011500085B00B68DFF8AC81684ADFF8AC91019389
:1011600000234FF0010E019C0EFA03FE0EEA040666
:10117000B64540F0AE804C6824F01007022F16D11F
:101180004FEAD30A00EB8A0A03F0070BDAF8205083
:101190004FEA8B0B4FF00F0C0CFA0BFC25EA0C0CF2
:1011A0000D6905FA0BF545EA0C05CAF820504FEA1F
:1011B000430A0325D0F800B005FA0AF5ED4304F020
:1011C000030C0BEA050B0CFA0AFC013F4CEA0B0C72
:1011D000012FC0F800C011D8876807EA050BCF6857
:1011E00007FA0AFC4CEA0B078760476827EA0E0EED
:1011F000C4F300179F4047EA0E074760C7683D40A9
:101200008F6807FA0AF73D43C560E50061D54FF0E6
:10121000000BCDF80CB0D8F84470394D47F4804736
:10122000C8F84470D8F8447007F480470397039FC8
:1012300023F0030707F1804707F59C3703F0030C01
:10124000D7F808A04FEA8C0C4FF00F0E0EFA0CFEE8
:10125000A8422AEA0E0E43D005F58065A84241D087
:1012600005F58065A8423FD005F58065A8423DD0D0
:1012700005F58065A8423BD048453BD005F50065A3
:10128000A84239D005F58065A84214BF0825072576
:1012900005FA0CF545EA0E05BD601568F74314F430
:1012A000803F0CBF3D4035431560556814F4003F46
:1012B0000CBF3D4035435560956814F4801F0CBF4A
:1012C0003D4035439560D568A40254BF3D40354349
:1012D000D5600133102B7FF444AF05B0BDE8F08F2B
:1012E0005D46D5E70125D3E70225D1E70325CFE702
:1012F0000425CDE70525CBE70625C9E7003C0140DD
:101300000000024000380240001402400AB181612E
:1013100070470904FBE74369594041617047F0B5E4
:1013200006468BB0002864D00323344680F8B933D6
:1013300002F01AFC54F8100B01F028F80FCC6D469F
:101340000FC50FCC0FC594E8030085E80300371DD7
:1013500097E80E00306800F0D9FF0021306801F0F6
:101360001BF800213346324606F1100401250846D9
:1013700082F83810D18701310F2982F8395082F86C
:101380003B0010645064D06402F11C02F0D10022D2
:10139000D6F800E0114602F1400083F8F821DA8720
:1013A0000EEB800001320F2A83F8F91183F8FB114C
:1013B000C3F80012C3F80412C3F80C12416003F121
:1013C0001C03E8D10FCC6D460FC50FCC0FC594E8B8
:1013D000030085E80300704697E80E0000F0F4FF74
:1013E000012386F8B933306801F011FB00200BB0FF
:1013F000F0BD0120FBE790F8B833012B10B504468F
:101400000CD0012380F8B833006801F0F4FA2068AA
:1014100000F0B6FF002084F8B80310BD022010BD14
:101420002DE9F04FD0F8009087B00446484601F00F
:1014300028FB0290002840F02E81206801F0F3FA8A
:10144000002800F02881206801F0EDFA850748BFE8
:101450002268206842BF536903F00203536101F020
:10146000E2FA10F400250AD0206801F0E0FA09F54C
:1014700030660746A2460025002F40F00F81206805
:1014800001F0D1FA41030BD5206801F0D8FA2646C5
:10149000039009F510680025039B002B40F03F8165
:1014A000206801F0C0FA00280DDAD9F8043823F0DA
:1014B0000103C9F80438204602F0D4FB22685369BE
:1014C00003F000435361206801F0ADFA06050BD527
:1014D000D9F80838D80702D5204602F0ABFB2268BD
:1014E000536903F400635361206801F09CFAC1045E
:1014F00037D509F500667368206823F0010373602F
:10150000102100F0FDFF616809F51063FF220298C9
:10151000884240F092814FF0FF33B361F36943F0AA
:101520000113F361236B002B00F08F81D6F8843018
:1015300043F00B03C6F88430736C43F00B03736401
:10154000D9F80038217C206823F4FE63C9F80038FC
:1015500004F56F7201F0B4FA2268536903F4805302
:101560005361206801F05FFA82041DD5206801F004
:101570008CFA2068C36823F47053C36000F0E9FF5D
:10158000002840F06B812268E0604FF400736361D3
:10159000D36843F41053D360204602F03AFB22682C
:1015A000536903F400535361206801F03CFAC30609
:1015B0002BD52268936923F010039361D9F820603A
:1015C000C6F34343022B06F00F0840F0A88147F60C
:1015D000F0731E4214D01C2707FB0847C6F30A16F7
:1015E0003246D7F80412484601F0AFF9D7F8043272
:1015F0003344C7F80432D7F810321E44C7F81062DB
:101600002268936943F010039361206801F00BFA9C
:10161000070707D5204602F0F8FA2268536903F05D
:1016200008035361206801F0FEF9C60208D5E9B24B
:10163000204602F01FFB2268536903F480135361B4
:10164000206801F0F0F9800208D5E9B2204602F0E6
:101650000DFB2268536903F400135361206801F005
:10166000E2F9410007D5204602F008FB22685369E1
:1016700003F080435361206801F0D5F942070AD591
:1016800023685D686B0702D5204602F0FBFA2368E9
:101690005A6815435D6007B0BDE8F08FF80738D58C
:1016A0005FFA85FB5946206801F0D1F910F0010F6F
:1016B000804621D0216901239942B3600CD1316960
:1016C000DAF80002C1F31201411ACAF81012DAF86E
:1016D00004120844CAF804025946204602F084FA6B
:1016E0002169012908D13DB9D4F80C2222B904F5A9
:1016F0006F72206801F0E4F918F0080F04D020465A
:1017000002F06CFA0823B36018F0100F1CBF10230E
:10171000B36001357F0820360AF11C0AACE6039B52
:10172000DA0758D55FFA85FB5946206801F099F928
:10173000C307074620D5D9F834380121A94023EA48
:101740000103C9F834380123C8F808302369012B94
:1017500001BF736C326C9B1873645946204602F0CB
:101760004CFA2169012907D135B9E36C23B904F595
:101770006F72206801F0A4F9380744BF0823C8F845
:101780000830F90644BF1023C8F808307A0644BF71
:101790004023C8F80830BB0744BF0223C8F808300C
:1017A0003F0618D523680493F76C336DFF1A336C2A
:1017B0009F4228BF1F46049B03F5106307F1030AED
:1017C00003EB45134FEA9A0A0593059B9B699BB26D
:1017D000534508D82FB3039B5B08013503931C3690
:1017E00008F1200858E6326DF36C9342F2D9002BD1
:1017F000F0D0376C04989B1A9F4228BF1F46237C69
:1018000000935A46BBB2716C01F08BF8736C3B4489
:101810007364336D07F1030A3B444FEA9A0A336558
:10182000D3E7049B012203F5006BD3F83438AA40B8
:1018300023EA0203CBF83430CDE702989A600130F6
:10184000C3F808220290203361E6736943F00B036A
:101850007361336943F00B03336171E60323E36083
:101860004023636100F0F8FB344B354A0344934254
:10187000236804D8DA6842F47052DA608CE6314AA0
:10188000314902448A4203D8DA6842F46052F4E7EC
:10189000A0F574022D49A2F510528A4203D8DA68E5
:1018A00042F45052E9E7A0F183722949A2F5E742D8
:1018B0008A4203D8DA6842F44052DEE7254A2649D4
:1018C00002448A4203D8DA6842F43052D5E7234A08
:1018D000234902448A4203D8DA6842F42052CCE712
:1018E000204A214902448A4203D8DA6842F410525D
:1018F000C3E7A0F1B7721D49A2F558528A4203D836
:10190000DA6842F40052B8E7194A1A4902448A4296
:10191000DA6894BF42F4E05242F4C052ADE7062BBD
:101920007FF46EAE082204F56F7148461C2701F063
:101930000CF807FB0847C6F30A165CE6405327FF7E
:10194000FF340C00401E1BFF3F420F007F4F120070
:101950001FD6130060B6E5FE5FE3160000D3CEFE8F
:101960003F771B00C05BB3FEBF9121001F7538009D
:10197000E05459FEDF9C410090F8B833012B10B5BC
:10198000044609D0012380F8B833006801F023F839
:10199000002084F8B80310BD022010BD70B54EB20F
:1019A000002E04464FF01C0501F07F00B5BF05FB7B
:1019B000004105FB0141383101F5FC71C0B2002E38
:1019C000B8BFC880022BCB704FEAD67504BF002386
:1019D0000B7108704D7094F8B8338A60012B09D0F0
:1019E000012384F8B833206800F0CEFD002084F88D
:1019F000B80370BD022070BD4BB2002B10B54FF084
:101A00001C02044601F07F00B5BF02FB004102FB4F
:101A10000141383101F5FC71DB0F08704B7094F80F
:101A2000B833012B09D0012384F8B833206800F0C3
:101A3000EAFD002084F8B80310BD022010BD38B5BF
:101A400001F07F051C2404FB050104FB050401F5DE
:101A5000FC71C4F80C320023C4F80422C4F810321C
:101A600084F8F93184F8F85103690068012B08BF44
:101A7000C4F80822DAB21DB900F0E6FE002038BD35
:101A800000F01CFEFAE71C2301F00F0103FB01012B
:101A9000B1F81002704738B501F07F051C2404FB33
:101AA000050104FB05043831E364002323650123A9
:101AB000626484F8393084F8385003690068012B77
:101AC00008BFA264DAB21DB900F0BEFE002038BD26
:101AD00000F0F4FDFAE738B54BB2002B01F07F05BA
:101AE0004FF01C02B5BF02FB050102FB01013831BA
:101AF00001F5FC710122DB0FEDB28A700D704B70A5
:101B000090F8B833934204460FD080F8B8230068A9
:101B100000F029FF2DB904F56F72217C206800F0D8
:101B2000CFFF002084F8B80338BD022038BD38B597
:101B30004BB2002B05464FF01C0201F07F00B5BFF1
:101B400002FB005102FB0151383101F5FC71DB0F42
:101B500000248C7008704B7095F8B833012B09D0B5
:101B6000012385F8B833286800F01CFF85F8B843D6
:101B7000204638BD022038BD006870B5436A21B9DF
:101B800043EA02438362002070BD846A002503EBB0
:101B900014434E1EECB2B44205F1010506DB3F31A1
:101BA00000EB810043EA02434360ECE7403400EB82
:101BB0008404646803EB1443ECE703680020596273
:101BC000704700002DE9F341044618B9012002B026
:101BD000BDE8F0810368DD0710D42368980758D466
:101BE00023681A0700F19A8023685B0700F1B88028
:101BF000A269002A40F019810020E8E7A64B9A6804
:101C000002F00C02042A07D09A6802F00C02082A9B
:101C10000AD15B68590207D59F4B1B689A03DCD534
:101C20006368002BD9D1D1E763689B4DB3F5803F42
:101C300011D12B6843F480332B60FFF7F3F9964DF5
:101C400006462B689B03C8D4FFF7ECF9801B642879
:101C5000F7D90320BBE7B3F5A02F04D12B6843F4D9
:101C600080232B60E5E72A6822F480322A602A6804
:101C700022F480222A60002BDFD1FFF7D3F9064639
:101C80002B689F03A9D5FFF7CDF9801B6428F7D9EE
:101C9000DFE7814B9A6812F00C0F07D09A6802F0C8
:101CA0000C02082A11D15B685E020ED47A4B1A68C6
:101CB000950702D5E268012A88D11A68216922F0C5
:101CC000F80242EAC1021A608AE7E268734BB2B1D5
:101CD00001221A60FFF7A6F96F4D06462B68980798
:101CE00007D52B68226923F0F80343EAC2032B606F
:101CF00076E7FFF797F9801B0228EFD9A9E71A606A
:101D0000FFF790F9644D06462B6899077FF568AF99
:101D1000FFF788F9801B0228F6D99AE76269604BC1
:101D20007AB101221A60FFF77DF95B4D06466B6FB1
:101D30009F073FF559AFFFF775F9801B0228F6D9C9
:101D400087E71A60FFF76EF9534D06466B6F9807E9
:101D50007FF54AAFFFF766F9801B0228F6D978E7CE
:101D60004D4B1A6C12F0805228D101921A6C42F03D
:101D700080521A641B6C03F080530193019B01266F
:101D8000484D2B68D9051BD5A368434D012B27D19E
:101D90002B6F43F001032B67FFF744F93E4D0746D5
:101DA00041F288382B6F9B0739D5002E3FF420AFC6
:101DB000394A136C23F08053136419E70026DFE7D8
:101DC0002B6843F480732B60FFF72CF907462B68D0
:101DD000DA05D9D4FFF726F9C01B0228F7D938E76E
:101DE000052B04D12B6F43F004032B67D0E72A6F38
:101DF00022F001022A672A6F22F004022A67002BD0
:101E0000CAD1FFF70FF941F2883807462B6F9807C0
:101E1000CBD5FFF707F9C01B4045F7D919E7FFF706
:101E200001F9C01B4045BDD913E71B4DAB6803F05A
:101E30000C03082B3FF4CAAE1B4E0023022A33606A
:101E400034D1FFF7EFF807462B6899011ED4226AB8
:101E5000E3691343626A43EA8213E26A43EA026374
:101E6000A26A0D4C5208013A43EA02436B60012317
:101E70003360FFF7D7F8054623689A013FF5BCAEFB
:101E8000FFF7D0F8401B0228F6D9E2E6FFF7CAF8C0
:101E9000C01B0228D8D9DCE60038024000004742C7
:101EA000800E47420070004060004742FFF7BAF8DA
:101EB00004462B689B017FF59FAEFFF7B3F8001B2C
:101EC0000228F6D9C5E600BF134908B58B6803F0B0
:101ED0000C03042B03D0082B03D0104808BD104876
:101EE00008BD4A684B68496813F4800314BF0C4866
:101EF0000A48C1F3881118BF002302F03F02A1FB7A
:101F00000001FEF7BDFE044B5B68C3F301430133E0
:101F10005B00B0FBF3F008BD003802400024F40081
:101F200000127A002DE9F0410D46044610B9012057
:101F3000BDE8F081444B1A6802F00F028A4228D3B0
:101F400021688F072DD4C80740D43F4B1A6802F090
:101F50000F02954266D3226851076CD4130707D548
:101F60003A4A2169936823F4604343EAC1039360CA
:101F7000FFF7AAFF354B364A9B68C3F30313D35CC4
:101F8000D840344B18600020FFF702F80020BDE86D
:101F9000F081CAB21A701B6803F00F039942C6D1D0
:101FA000CEE72A4B11F0040F1EBF9A6842F4E052AC
:101FB0009A600E0742BF9A6842F460429A609A683B
:101FC000A06822F0F00202439A60BCE762681F4BEF
:101FD000012A1DD11B6813F4003FA8D01B4EB36823
:101FE00023F003031343B360FFF71CF841F2883872
:101FF0000746B368626803F00C03B3EB820FA4D00A
:10200000FFF710F8C01B4045F3D90320BDE8F0816D
:10201000911E01291B6802D813F0007FDDE713F041
:10202000020FDAE7EAB21A701B6803F00F039D4251
:102030007FF47DAF8FE70549E0688B6823F4E053B8
:1020400003438B608AE700BF003C02400038024037
:102050003865000820010020014B1868704700BF58
:10206000200100200368DA6842F00102DA601A6891
:1020700042F001021A6000207047704770477047B5
:10208000704703681A69910710B504460ED5DA68DF
:1020900092070BD56FF002021A619B6901229B0720
:1020A000027677D0FFF7EAFF0023237623681A69C8
:1020B000500710D5DA6851070DD56FF004021A6188
:1020C0009B69022213F4407F2276204668D0FFF7F6
:1020D000D5FF0023237623681A6912070FD5DA6823
:1020E00010070CD56FF008021A61DB69042299070A
:1020F000227620465AD0FFF7C1FF002323762368BB
:102100001A69D20610D5DA68D0060DD56FF0100224
:102110001A61DB69082213F4407F227620464BD0F7
:10212000FFF7ACFF0023237623681A69D10708D58F
:10213000DA68D20705D56FF001021A61204601F076
:1021400039FB23681A69100608D5DA68110605D527
:102150006FF080021A61204600F0D7F823681A69F0
:10216000520608D5DA68500605D56FF040021A61AC
:102170002046FFF785FF23681A69910622D5DA68A1
:1021800092061FD56FF0200220461A61BDE810406C
:1021900000F0BAB8FFF771FF2046FFF770FF83E742
:1021A000FFF76BFF2046FFF76AFF92E7FFF765FF37
:1021B0002046FFF764FFA0E7FFF75FFF2046FFF729
:1021C0005EFFAFE710BD00002E4A0368904212D0B8
:1021D000B0F1804F0FD0A2F57C4290420BD002F5B7
:1021E0008062904207D002F58062904203D002F5EF
:1021F000784290421DD14A6823F070031343214A6C
:10220000904204D1CA6823F44073134328E0B0F12C
:10221000804FF7D01C4A9042F4D002F58062904281
:10222000F0D002F580629042ECD002F57842904204
:10223000E8D0164A9042E5D002F580629042E1D0A3
:1022400002F580629042DDD0A2F598329042D9D05A
:1022500002F580629042D5D002F580629042D1D0E2
:1022600003608B68C3620B688362064B984206D09A
:1022700003F58063984202D00123436170470B69E4
:102280000363F9E700000140000400400040014002
:1022900010B50446A0B190F8393003F0FF021BB925
:1022A00080F8382001F082FB022384F8393020685E
:1022B000211DFFF789FF012384F83930002010BD6C
:1022C000012010BD90F83830012B10B54FF00203FB
:1022D00018D080F8393003680C685A68496822F0D1
:1022E00070025A605A6822435A609A6822F080024B
:1022F0009A609A680A439A60012380F83930002373
:1023000080F83830184610BD7047704784B038B533
:1023100005AD85E80E000A9B012B044626D1836B90
:1023200023F480338363C36823F4840323F04003DE
:10233000C360C36823F44013C360119B012B02BF29
:10234000C36843F48013C36000F0DEFB089B012BDD
:1023500007D1A36843F00603A360A36843F02003FA
:10236000A360BDE83840002004B07047C36843F064
:102370004003C36000F0C8FB4FF48033A363E5E77C
:10238000836843F00103836000207047836823F073
:10239000010383600020704708B5C368012923F05A
:1023A000C043C36008D1C36843F00053C360322008
:1023B000FEF73EFE002008BD0029F8D1C36843F0B7
:1023C0008043C360F3E7000084B02DE9F041044688
:1023D00007A880E80E00119E0A9FA36B8846A6B945
:1023E00043F40013A3630023C4F8003ED4F800387C
:1023F000C4F800380C9B012B04F500655ED10999E7
:1024000039B9204600F09EF807E043F40023A363A7
:10241000E9E71946204600F095F81021204600F023
:102420006FF8204600F07EF800234FF0FF322B615A
:1024300019466B614FF09040AA614FF0FF0EEB61BF
:1024400004F5106243453BD1002104F53062084693
:102450004FF0904E4FF0FF0C8B423ED12B69012F75
:1024600023F480732B6108D1234B2B632B6B43F434
:10247000803343F003032B632B6B0023A3616FF0C6
:10248000804363611FB9A36943F01003A361A2698C
:102490001A4B1343A3610D9B1BB1A36943F00803BF
:1024A000A361012E01BFA36943F0804343F00403FD
:1024B000A361BDE8F041002004B070470321A0E70C
:1024C000D2F800C0BCF1000FB4BF1060116001333E
:1024D0001161C2F808E02032B4E7D2F80080B8F108
:1024E000000FB4BFC2F800E0106001311061C2F803
:1024F00008C02032B0E700BF0001800000383C80F7
:10250000890141F02001064A0161013A05D00369C1
:1025100013F02003F9D1184670470320704700BF1D
:10252000410D03001023064A0361013A05D00369F7
:1025300013F01003F9D1184670470320704700BF0D
:10254000410D0300D0F800381943C0F800180020EE
:10255000704700F50062D0F8080810F0060012D0AD
:10256000936803F00603022B0CD0936803F0060374
:10257000062B07D0936803F00603042B14BF00203A
:10258000022070470320704730B54B780C78D0F8A4
:102590001C5800F50062012B1BD1A3409BB22B43BA
:1025A00000F51060D36100EB44131A6812040ED4D6
:1025B0008A68C8781D68C2F30A0242F0805242F469
:1025C000004242EA804040EA8450284318600020DC
:1025D00030BD4FF48033A34000F530602B4300EB57
:1025E0004410D36103681B04F1D48B68C978026876
:1025F000C3F30A0343F0805343F4004343EA8143A7
:1026000013430360E3E700F001B8000070B54B78B6
:10261000012B0E46054609784FF0200326D100F520
:10262000106213FB01231A6822F400421A604FF073
:1026300000621A604FF080421A601F4A013A01D1CD
:10264000032070BD9C6814F08044F7D11021284607
:10265000FFF756FF3178D5F81C2801238B409BB239
:1026600022EA0303C5F81C38204670BD00F530622D
:1026700013FB01231A6822F400421A604FF0006233
:102680001A604FF080421A600B4A013AD8D098681D
:1026900010F01000F9D1D5F8043843F48063C5F880
:1026A0000438D5F81C384FF480328A4023EA0203FC
:1026B000C5F81C3870BD00BF410D0300F7B54B785D
:1026C0000C78012B4B6977D1202600F5106516FB9D
:1026D00004542669002B38D126F0FF5626F4C01684
:1026E0002661266946F4002626612669F60CF60462
:1026F0002661012A50D10C780E6905EB44146661FD
:10270000CE78012E0FD1D0F808480F7814F4807FCE
:102710004FF0200414FB075427680CBF47F0005704
:1027200047F0805727600F7805EB4715012E2C687E
:1027300044F004442C6005D100929BB23A46C9682B
:1027400000F0EFF8002003B0F0BDF60CF6042661AF
:1027500026698F6826F0FF5626F4C0162661DE191A
:10276000013EB6FBF7F7374ED4F810E006EAC7464D
:1027700046EA0E0626612769C3F312063E43266128
:10278000CE78012E5AD1266926F0C04626612669E8
:1027900046F000562661ACE7CE78012EB3D0002B70
:1027A000AED091F800E0D0F83478012404FA0EF4A9
:1027B0003C43C0F83448A3E700F5306505EB44140A
:1027C0002569ED0CED042561256925F0FF5525F4FB
:1027D000C01525618D68FBB92369C5F312051D433A
:1027E0002561236943F400232361012A04BFCB68D8
:1027F0006361CB78012B0AD1D0F8083813F4807FBD
:1028000023680CBF43F0005343F0805323602368D8
:1028100043F00443236095E70A4E27692B44013BAC
:10282000B3FBF5F306EAC3463E4326619BB2266935
:102830005D43C5F3120535432561D6E7012AAED1C4
:1028400059E700BF0000F81F4B78012B70B50B78DB
:102850004D6943D1202400F5106614FB03631C6905
:10286000CDB924F0FF5424F4C0141C611C6944F455
:1028700000241C611C69E40CE4041C610D7806EB67
:102880004513012A1C6844F004441C601BD10A69EA
:102890005A61002070BDE40CE4041C611C6924F042
:1028A000FF5424F4C0141C618C68A54288BF4C619D
:1028B0001C6944F400241C614C691D69C4F31204B2
:1028C0002C431C61DAE74B69002BE2D0D0F83428A6
:1028D0000123AB401343C0F83438DAE700F5306029
:1028E00000EB43100369DB0CDB040361036923F095
:1028F000FF5323F4C01303618B6805B14B61046976
:1029000044F4002404610469C3F312032343012A3D
:10291000036104BFCB684361036843F00443036071
:10292000B7E710B59DF808404CB9033300F5805067
:1029300023F0030300EB02320B44994201D1002043
:1029400010BD51F8040B1060F7E7033222F00302C8
:102950000A4400F58050914201D10846704703684F
:1029600041F8043BF7E74B780A78012B4FF020033E
:102970000BD100F5106013FB02000368002B0BDB8A
:10298000036823F08043036006E000F5306013FB2A
:1029900002000368002BF3DA036843F400130360BA
:1029A000002070474B780A78012B0CBF00F51060AF
:1029B00000F53060202313FB0200036823F40013AA
:1029C0000360CB78023B012B9EBF036843F080532A
:1029D000036000207047D0F8003823F4FE63C0F88D
:1029E0000038D0F80038090101F4FE611943C0F83D
:1029F00000180020704708B5D0F8043823F002030F
:102A0000C0F804380320FEF713FB002008BD08B50A
:102A1000D0F8043843F00203C0F804380320FEF76E
:102A200007FB002008BD4269806910407047D0F85C
:102A3000183800F50060C0691840000C7047D0F8E5
:102A4000183800F50060C069184080B2704700F582
:102A5000306303EB411100F500608A684069104063
:102A6000704710B5D0F81048D0F8343800EB41105A
:102A7000CB4000F51060DB018068DBB223431840D7
:102A800010BD406900F001007047D0F8003923F410
:102A9000FF6323F00703C0F8003900F500639A686C
:102AA00002F00602042A02BFD0F8002942F0030215
:102AB000C0F800295A6842F480725A6000207047BA
:102AC00010B50024C0F8104BD0F8104B44F400248B
:102AD000C0F8104BD0F8104B44F01804C0F8104B5D
:102AE000D0F8104B012900F5306344F0C04408BF12
:102AF0004FF08023C0F8104B04BFC0F8142BC0F86F
:102B0000003B002010BD00000A4B013B01D1032017
:102B100070470269002AF8DA0369064A43F00103A4
:102B20000361013AF3D0036913F00103F9D11846A8
:102B3000704700BF410D0300D0F818321BB10020D0
:102B4000C3F81402704702207047D0F81C3210B549
:102B5000D0F818425BB194F80002FF2807D09B68B8
:102B600094F8012221469847FF2384F80032002080
:102B700010BD000043230380004870474000002040
:102B800043230380004870478400002043230380D0
:102B900000487047D40000200A2303800048704793
:102BA000C800002038B50546D0F8184201F02AF9CF
:102BB000D5F81832C4F80C024BB1D5F81C32D4F851
:102BC0000402DB6804F503719847002038BD022039
:102BD00038BD0000F8B50F7817F0600306460C46C4
:102BE00023D0202B19D1CA884B78C2B13906D0F82E
:102BF00018520BD5D0F81C1218468F682946B847D2
:102C0000E2882946304600F09AFB06E085F800325B
:102C100085F80122294600F0A7FB0020F8BDD0F876
:102C20001C0284681846A047F7E74B780A2BF4D1BA
:102C300001220149E7E700BF5403002010B58121BC
:102C4000044601F077F80121204601F073F8822153
:102C5000204601F06FF8D4F8183253B1D4F81C3282
:102C60005B689847D4F8180201F07AF90023C4F899
:102C70001832002010BDF8B5037C04467BBB4FF42E
:102C800000730222812101F045F84FF40073022203
:102C90000121204601F03EF808230322822120462C
:102CA00001F038F84FF4077001F052F90646C4F805
:102CB000180220B3D4F81C321B689847277C0025E3
:102CC000C6F81452C6F8185287B94FF40073D6F8F4
:102CD00004220121204601F087F83846F8BD402340
:102CE0000222812101F016F84023D0E74023D6F8D4
:102CF00004220121204601F077F82846F8BD012082
:102D0000F8BD19B1C0F81C120020704702207047AE
:102D1000D0F818320020C3F80812C3F81022704708
:102D2000D0F818320020C3F804127047D0F81822E7
:102D300010B572B1D2F81442012364B9C2F814324A
:102D40008121B2F81032D2F8082201F03FF8204673
:102D500010BD022010BD184610BDD0F8182210B5C5
:102D600062B1047C44B94FF40073D2F8042201210B
:102D700001F03AF8002010BD4023F6E7022010BD14
:102D800008B580B1D0F8143213B10023C0F8143262
:102D900009B1C0F81012012380F8FC31027000F074
:102DA00075FF002008BD022008BD19B1C0F814123B
:102DB000002070470220704708B500F09DFF0020FA
:102DC00008BD08B5D0F814320BB9022008BD1B6845
:102DD00098470028F9D108BD08B5D0F814325B68CF
:102DE0009847002008BD38B5044600F5027528460E
:102DF00000F075FA012394F80812C4F8F431B4F81D
:102E00000E32C4F8F83101F01F03012B0ED007D3A6
:102E1000022B10D001F08001204600F099FF03E062
:102E20002946204600F0E6F8002038BD2946204615
:102E300000F0DAF9F8E72946204600F0EDF9F3E76B
:102E400038B50446154611BBD0F8F431032B0FD129
:102E5000D0F80C31D0F8102193420BD99B1A9A422A
:102E600028BF1A46C0F80C3192B2294600F08BFAFE
:102E7000002038BDD0F814321B6923B190F8FC2132
:102E8000032A00D19847204600F085FAF0E7D0F8F1
:102E900014329B69002BEBD090F8FC21032AE7D178
:102EA0009847E5E770B5134604460E4600293DD124
:102EB000D0F8F421022A0FD1C569026A954214D9CB
:102EC000AA1AC261194692B200F046FA33461A466F
:102ED0001946204600F088FF94F80032012B02D1F9
:102EE000002384F80032002070BD8369B3FBF2F543
:102EF00002FB153565B99A420AD8D0F8F8219342F9
:102F000006D22A4600F028FAC4F8F8512B46DEE72C
:102F1000D4F81432DB682BB194F8FC21032A01D1D8
:102F200020469847204600F041FAD5E7D0F8143201
:102F30005B69002BD7D090F8FC21032AD3D19847A6
:102F4000D1E738B50022044611464025402300F061
:102F5000E1FE2B46C4F8105100228021204600F0EB
:102F6000D9FE012384F8FC31D4F8183225622BB144
:102F7000D4F8143221795B6820469847002038BD88
:102F800001740020704790F8FC3180F8FD31042373
:102F900080F8FC310020704790F8FD3180F8FC315A
:102FA0000020704708B590F8FC21032A04D1D0F81E
:102FB0001432DB6903B19847002008BD0020704738
:102FC000002070470020704708B5012280F8FC21DE
:102FD000D0F81422017952689047002008BD10B53E
:102FE0008021044600F0B4FE20460021BDE81040D8
:102FF00000F0AEBE37B54B7804460D46092B79D8A4
:10300000DFE813F0C900E5007800D90078006D0012
:103010000A007800B9008D004B881A0A013A062A86
:1030200068D8DFE802F0041C296767495200D0F82D
:1030300010321B68207C0DF106019847BDF8062070
:10304000002A67D0EB88002B64D09A4228BF1A462A
:10305000ADF806200146204600F071F95AE0027CE6
:10306000D0F8143232B99B6A0DF10600984702235A
:103070004370E3E7DB6AF7E7DBB2052B3AD8DFE81A
:1030800003F003070B0F1317D0F810325B68D1E77A
:10309000D0F810329B68CDE7D0F81032DB68C9E772
:1030A000D0F810321B69C5E7D0F810325B69C1E770
:1030B000D0F810329B69BDE7037CDBB9D0F814323D
:1030C0000DF106005B6B9847B8E7037C93B9D0F825
:1030D00014320DF106001B6B98470723C8E78B8855
:1030E00043B9CB8833B990F8FC318D78032B05F0C8
:1030F0007F0503D12046FFF772FF0BE080F8FE51F9
:10310000294600F055FE204600F045F92DB1022376
:1031100084F8FC31002003B030BD0123F8E7897842
:10312000304D01292970E5D890F8FC31022B0CD0E4
:10313000032BDFD1B1B9022380F8FC314160FFF7E6
:103140004BFE204600F027F9E4E70029F9D00121E1
:103150000323416080F8FC312046FFF732FE02284D
:10316000EFD1C7E741680129EBD0C9B2FFF734FEC0
:1031700029786160F0E7CA88012ABBD190F8FC3158
:10318000022B03D0032BB5D1011D64E701460023B8
:1031900041F8083F5FE790F8FC31023B012BA9D8CA
:1031A0000123C360D0F804320BB10323C3600222B1
:1031B00004F10C014FE74B88012BABD1C4F804326A
:1031C000D4F8143229469B6820469847B9E790F80E
:1031D000FC31023B012B8DD84B88012B9AD1002367
:1031E000ECE700BF5503002038B590F8FC31032B05
:1031F00004460D460DD10B79012B0AD8D0F81432B4
:103200009B689847EB8813B9204600F0C4F800206B
:1032100038BDFFF7E4FEFAE770B50A788E8802F051
:103220006002202A04460D46F3B205D1D0F81432CC
:103230009B689847002070BD4A78012A1CD02AD389
:10324000032AF7D190F8FC21022A40D0032A02D0A9
:10325000FFF7C5FEEEE74A8822B95E0602D019469E
:1032600000F076FDD4F8143229469B682046984732
:10327000204600F090F8DDE790F8FC21022A26D0E5
:10328000032AE5D14A88002AD4D15906F0D019463C
:1032900000F06CFDE6E790F8FC21022A17D0032A23
:1032A000D6D103F07F0516F0800F00EB0515194607
:1032B00014BF143505F5827500F066FD68B1012371
:1032C0002B6002222946204600F039F8B2E75A0660
:1032D000B0D0194600F03CFDACE72860F1E70B7870
:1032E00003704B784370CA788B7803EB02234380DA
:1032F0004A790B7903EB02238380CA798B7903EB3C
:103300000223C380704730B588B105462B1A15F8E3
:10331000014BDBB2002CF9D15B00023313800B7040
:1033200003234B700138022310F8015F05B930BD4B
:103330005A1CD2B2CD540233DBB28C54F4E710B530
:1033400013460222C0F8F42183610A46C3610021BA
:1033500000F03CFD002010BD08B513460A460021D0
:1033600000F034FD002008BD10B513460322C0F85C
:10337000F421C0F808310A46C0F80C31002100F0F1
:1033800033FD002010BD08B513460A46002100F0A9
:103390002BFD002008BD08B50423C0F8F43100233C
:1033A0001A46194600F012FD002008BD08B5052395
:1033B000C0F8F43100231A46194600F015FD00202C
:1033C00008BD000010B594B0284B002101911A6C83
:1033D00042F080521A641B6C03F080530193019BEE
:1033E000234B02911A6842F480421A601B6803F46E
:1033F00080430293029B012308934FF48033099387
:103400004FF480030F93082310934FF4A873022402
:10341000119308A807230E9412941393FEF7D2FB7E
:1034200000B1FEE70F2303934FF4A05305900693DA
:1034300005214FF4805303A804940793FEF772FD0F
:10344000044600B1FEE7FEF707FE4FF47A73B0FBC7
:10345000F3F0FDF753FE0420FDF766FE22462146F9
:103460004FF0FF30FDF70AFE14B010BD00380240E7
:1034700000700040AB4AAC4EDFF8C892DFF8C8825B
:103480002DE980484FF40071A2F844104FF48051A8
:10349000A2F850104FF480734FF400611385A2F826
:1034A000581080234FF480410024012502274FF05B
:1034B000080B4FF0040A1386A2F864104FF48063DF
:1034C0004FF400518FB09387A2F86C10A2F800B0AF
:1034D0009583C2F80490A2F808A0C2F80C90146179
:1034E0009782C2F81880C2F820805462D662566370
:1034F000946316649664D4645665D66514669666BD
:1035000016675467894A01939460157182F82450B4
:1035100082F844501460D460946114611475D461CD
:1035200094621462D4629463146382F83440D46366
:1035300094641464D4649465146582F85440D4652A
:10354000FDF74AFDFFF73EFF794A0394116B41F006
:1035500010011163116B01F01001039103990494A0
:10356000116B41EA0A011163116B01EA0A0104912E
:1035700004990594116B41F080011163116B01F006
:103580008001059105990694116B29431163116B14
:103590002940069106990794116B39431163116B09
:1035A0003940079107990894116B41EA0B011163A7
:1035B000126B02EA0B020892089A47F688712246BB
:1035C0003046FDF7A3FE2A4629465A48FDF79EFEDF
:1035D00022460C214846FDF799FE2246032140462B
:1035E000FDF794FE22464FF210015348FDF78EFE80
:1035F00047F6887209A9304609920A950B940C94F3
:10360000FDF7A4FD09A94B4809950A950B940C9464
:10361000FDF79CFDCDF824B009A94FF0050B4548F6
:103620000A970B940C94CDF834B0FDF78FFD434B03
:103630000A9309A9484609950B94FDF787FD0C22CA
:1036400009A9484609920A950B940C94FDF77EFD52
:103650001022099209A9062248460D9200920A9763
:103660000B940C94FDF772FDE0210991484609A9DD
:103670000A970B940C94CDF834B0FDF767FD032145
:103680000991404609A90A950B940C94FDF75EFD3B
:1036900009A94046CDF824A00A940B94FDF756FDE5
:1036A000019B099309A940460A970B940C94CDF805
:1036B00034B0FDF74BFD4FF2100309A91E480993E2
:1036C0000A950B940C94FDF741FD009A19480D9250
:1036D0004FF4A45309A909930A970B940C94FDF78E
:1036E00035FD202309A9144809930A940B94FDF78A
:1036F0002DFD4FF41073099309A9122340460A9334
:103700000B950C94CDF834A0FDF720FD0B4B0C4D20
:103710000A93304609A909970B94FDF717FD00F0AD
:103720009FF913E0C8030020001002406803002046
:103730000038024000080240000C02400000121055
:103740004004002000000240000402400B4AAC602C
:10375000532385E80C0028460A23EB60FEF798FD0A
:1037600000B1FEE709900A9009A92846FEF7AAFDD4
:1037700000B1FEE72846FEF775FCFEE700100040AA
:1037800038B514230D460A4958430C182A46095ADD
:103790006068FDF7BBFD2189E068FDF7BCFD23698A
:1037A000012D0CBF013303F1FF33236138BD00BF8E
:1037B000C8030020F8B50268124B9A4220D1124D7E
:1037C000124F29683A6891421AD2114C0026A36818
:1037D000002BF0B207DD2179FFF7D2FFA3683A682A
:1037E000A3EB4203A360A3682268013603EB420304
:1037F000062EA36004F11004E9D12B6801332B607D
:10380000F8BD00BF00100040180100201C0100207E
:10381000680300202DE9F04303786D2B9FB044D15D
:103820001EAF013047F8640D394601F089FADFED2B
:10383000347A344E344CDFF8D88060EE277A002595
:1038400017EE900AFCF780FE41EC100B02F0F8FD39
:1038500051EC100BFDF7A4F9A94630600A22394655
:10386000059801F03FFB05EB080340001B69E06091
:10387000C01A00B20028A4BF0123237180EAE072BD
:103880003368B8BF84F80490A2EBE0721435C3EB40
:103890004203782D2260A36004F11004DED11B4B9B
:1038A00000221A601FB0BDE8F083722B12D1154AB6
:1038B000174C00231360144A1946012518191433B4
:1038C000782BD160116015719160016102F11002D5
:1038D000F4D1E4E7732BE5D10D4A0E49536F0393FE
:1038E000136E0293D36C0193936B0093536A126926
:1038F00005A800F0F9FB81B205A800F01FF9D1E797
:103900000050C3471C01002068030020180100205C
:10391000C803002000650008FEE7000013B5224B35
:10392000002400945A6C42F480425A645A6C02F4A7
:1039300080420092009A01941A6C42F080521A64FC
:103940001B6C03F0805301930720019BFDF784FB60
:10395000224621466FF00B00FDF790FB22462146E0
:103960006FF00A00FDF78AFB224621466FF009003E
:10397000FDF784FB224621466FF00400FDF77EFB35
:10398000224621466FF00300FDF778FB22462146D0
:103990006FF00100FDF772FB224621464FF0FF3029
:1039A000FDF76CFB02B010BD0038024007B50D4BAF
:1039B00002689A4213D1002203F50A330192196C6E
:1039C00041F0100119641B6C03F0100301933620C1
:1039D0001146019BFDF752FB3620FDF783FB03B038
:1039E0005DF804FB001000407047704708B5FDF714
:1039F0000DFBBDE80840FDF7A4BB00000148FEF741
:103A000040BB00BF400400200148FDF709BD00BFD6
:103A1000A81600200F49D1F8883043F47003C1F88C
:103A200088300D4B1A68002042F001021A6098603D
:103A30001A6822F0847222F480321A60074A5A60AF
:103A40001A6822F480221A60D8604FF000638B60FD
:103A5000704700BF00ED00E0003802401030002445
:103A600010B5094C094900222046FFF789F9084999
:103A70002046FFF79AF920460649FFF742F920460B
:103A8000BDE81040FFF798B97C0400203401002005
:103A900008000020240100200020704710B5064CCB
:103AA000064900222046FFF733F905492046FFF773
:103AB00037F9002010BD00BF7C040020A00E0020BC
:103AC000A0060020202803D0212811D00020704714
:103AD0000F4B0A781A704A785A708A789A70CA78A6
:103AE000DA700A791A714A795A718A799A71EDE70E
:103AF000074B1A780A705A784A709A788A70DA787E
:103B0000CA701A790A715A794A719B798B71DDE70B
:103B1000A016002070B5084D04460E460146284602
:103B2000FFF7FEF82846FFF718F920463168FFF73F
:103B300071FE002070BD00BF7C04002010B5094C50
:103B4000D4F81832D3F814320A4643B90146204655
:103B5000FFF7DEF82046BDE81040FFF7E7B8012088
:103B600010BD00BF7C04002010B50368B3F1A04F66
:103B700086B02DD100244FF4007301A9154801939C
:103B800002940394FDF7E2FA4FF4E0530193022309
:103B9000029301A90A230F48059303940494FDF7A7
:103BA000D5FA0D4B5A6B42F080025A6300945A6C5E
:103BB00042F480425A645B6C03F4804300934320D8
:103BC00022462146009BFDF759FA4320FDF78AFA69
:103BD00006B010BD000002400038024000F56F71D1
:103BE000D0F8EC03FFF7FFB81C2303FB0103D0F868
:103BF000EC03D3F80422FFF723B91C2303FB0103D2
:103C0000D0F8EC035A6CFFF74DB9D0F8EC03FFF78E
:103C1000C9B910B5C1680446003118BF0121D0F8F8
:103C2000EC03FFF7ADF9D4F8EC03BDE81040FFF763
:103C300088B9000010B50446D0F8EC03FFF7A3F9EB
:103C40002268D2F8003E43F00103C2F8003E236A26
:103C500023B1034A136943F00603136110BD00BF8B
:103C600000ED00E0D0F8EC03FFF796B9D0F8EC03D4
:103C7000FFF7A6B9D0F8EC03FFF7A0B9D0F8EC0332
:103C8000FFF7A0B9D0F8EC03FFF79EB908B50278AA
:103C90005ABB174B0421C3F8EC03C0F820324FF095
:103CA000A04083E803000221D960996118460121F0
:103CB0001A615A61DA611A625A62D9621A63FDF7AF
:103CC0002EFB20B140F253110A48FFF725FE802158
:103CD0000748FDF772FF402200210548FDF74CFF21
:103CE000802201210248FDF747FF002008BD00BFE8
:103CF000A81600204C65000808B5D0F82002FDF792
:103D00007AFB03289ABF024B185C022008BD00BF53
:103D10004865000810B51C46D0F82002134622461C
:103D2000FDF73CFE03289ABF014B185C022010BD32
:103D30004865000808B5D0F82002FDF75DFE0328AD
:103D40009ABF024B185C022008BD00BF48650008FE
:103D500008B5D0F82002FDF7BEFE03289ABF024B3B
:103D6000185C022008BD00BF4865000808B5D0F8FF
:103D70002002FDF7DCFE03289ABF024B185C0220EC
:103D800008BD00BF4865000811F0800FD0F8203250
:103D90004FF01C021BBF01F07F0102FB013102FB4F
:103DA000013191F83A0008BF91F8FA01704700001C
:103DB00008B5D0F82002FDF7DFFD03289ABF024BBB
:103DC000185C022008BD00BF4865000808B5D0F89F
:103DD0002002FDF760FE03289ABF024B185C022008
:103DE00008BD00BF4865000808B5D0F82002FDF7FF
:103DF00026FE03289ABF024B185C022008BD00BFB4
:103E00004865000808B5D0F82002FDF73CFE08BD63
:103E100012230B80004870475001002004230B80C0
:103E2000004870476401002010B5044C04480A465D
:103E30002146FFF768FA204610BD00BF981A0020FF
:103E40007865000810B5044C04480A462146FFF77F
:103E50005AFA204610BD00BF981A00208B65000852
:103E600010B5044C04480A462146FFF74CFA204698
:103E700010BD00BF981A0020A165000810B5044CC1
:103E800004480A462146FFF73EFA204610BD00BF0F
:103E9000981A00205F65000810B5044C04480A46D3
:103EA0002146FFF730FA204610BD00BF981A0020C7
:103EB0006A650008DFF834D0002103E00C4B5B5842
:103EC000435004310B480C4B42189A42F6D30B4A2C
:103ED00002E0002342F8043B094B9A42F9D3FFF772
:103EE00099FD00F011F8FFF7C5FA704700000220B5
:103EF000606800080000002038030020380300201C
:103F00009C1C0020FEE7000070B50D4E0D4CA41B5C
:103F1000A4100025A54209D10B4E0C4C02F0E4FA86
:103F2000A41BA4100025A54205D170BD56F825306C
:103F300098470135EEE756F8253098470135F2E706
:103F40005868000858680008586800085C6800084D
:103F5000024B0146186800F059B800BF6801002004
:103F6000024B0146186800F003B800BF680100204A
:103F700038B50546002945D051F8043C0C1F002BEC
:103F8000B8BFE41801F003FB1F4A1368104633B9A9
:103F9000636014602846BDE8384001F0F9BAA342D6
:103FA0000CD921686218934204BF1A685B68636089
:103FB00004BF521822600460ECE713465A680AB145
:103FC000A242FAD919685818A0420BD120680144BE
:103FD000581882421960DDD1106852685A60014455
:103FE0001960D7E702D90C232B60D3E7206821188A
:103FF0008A4204BF11685268626004BF09182160D8
:104000005C60C7E738BD00BF5803002070B5CD1C09
:1040100025F0030508350C2D38BF0C25002D06466C
:1040200001DBA94203D90C233360002070BD01F0ED
:10403000AEFA234A1468214691B9224C23681BB971
:10404000304600F041F820602946304600F03CF848
:10405000431C26D10C233360304601F099FAE4E783
:104060000B685B1B1AD40B2B0FD90B60CD50CC18EF
:10407000304601F08DFA04F10B00231D20F00700FB
:10408000C31A1BD05A42E25070BD8C420DBF636808
:104090004B686360136018BF0C46E9E70C4649683B
:1040A000CAE7C41C24F00304A04205D0211A3046FC
:1040B00000F00AF80130CDD02560D9E770BD00BF0F
:1040C000580300205C03002038B5064C0023054649
:1040D0000846236002F0FAF9431C02D1236803B1B9
:1040E0002B6038BD981C00200EB400B59CB04FF476
:1040F00002711DABADF81410029006906FF00041F4
:104100000A48049107914FF6FF7153F8042BADF85C
:1041100016100068019302A901F092FE029B002292
:104120001A701CB05DF804EB03B070476801002002
:1041300070B504460D4645EC104B164601F0EAFCFE
:1041400051EC100B7EB1C5F30A53C3F16B03002B86
:1041500009DD1B0503F17F55002405F540152246B6
:104160002B46FCF745FA70BD2DE9F04F9FB09846FD
:104170000490002340460C4615921A9301F0E8F98A
:1041800007460068FCF724F84FF0000A05464FF098
:10419000000B1994199B1A780D2A33D8092A37D2A3
:1041A000002A3FD000230993199E3378302B40F02A
:1041B00003817378582B01D0782B6BD1099B019325
:1041C0001AAB0093CDF808801BABAD4A049819A92F
:1041D00000F0E8FE10F00704054605D0062C2BD1B0
:1041E0000136002319960993159B002B40F090850A
:1041F000099BE3B152460BF1004343EC102B1FB077
:10420000BDE8F08F2B2A06D02D2A13D0202AC9D141
:1042100001331993BEE7002209925A1C19925B7868
:10422000002BC1D1159B1994002B40F06F8552468D
:104230005B46E2E70122EFE71A9A3AB135211CA862
:1042400001F059FD1A99049801F0D7F9013C042CAA
:1042500008D8DFE804F00C03171A0C00DDF870A092
:10426000DDF874B02907BFD54BF0004BBCE71D9BB0
:104270001B9ADDF870A023F4801302F2334243EA64
:10428000025BEFE7DFF804B2ECE76FF0004B4FF0B2
:10429000FF3AE7E7199B5A1C19925B78302BF9D04B
:1042A000002BA1D001234FF000090893199B0A931A
:1042B000CDF81C90CDF818900A2219980678A6F12E
:1042C0003003D9B2092979D92A46396802F048F869
:1042D000002800F082800020069D334602460146F9
:1042E000652B02D0452B40F0E88025B910B9089B1A
:1042F000002B97D00025199C631C199363782B2BF6
:1043000000F0C8802D2B00F0CB8000260596A3F18D
:104310003006092E00F2D080302B00F0C380A3F1CC
:104320003106082E00F2C980A3F1300E199B4FF020
:104330000A0C1F46199B5E1C19965B78A3F1300886
:10434000B8F1090F40F2B380F61B082E44F61F683F
:1043500002DCF045A8BFF046059E0EB1C8F100088A
:10436000002D40F0D08000287FF43EAF089A002A4C
:104370007FF43AAF00297FF455AF4E2B00F0A680B2
:1043800000F39E80492B7FF44DAF3E4919A801F000
:1043900039F800283FF446AF199B3B49013B19A867
:1043A000199301F02FF810B9199B01331993DFF815
:1043B000DCB04FF0000A17E7002374E706990829DC
:1043C000DDBF079902FB0133079302FB0939069B06
:1043D00001300133069319906FE7199B5A1919920E
:1043E000069A5B5D002A48D11046302B2AD0A3F1F3
:1043F0003102082A00F29184199A0A92024600209A
:104400000546303B00F1010111D00A4400EB050CD8
:1044100029460A2661451BD12844082800F10105D8
:1044200025DC07980A2101FB003307930021199B23
:10443000581C19905B780846A3F130010929E0D98E
:1044400001214DE7199B5A1C199201305B78CCE78A
:10445000013101F1FF3EBEF1080F03DC079F7743F6
:104460000797D7E71029D8BF06FB09F9D2E7102D27
:10447000DCBF0A2101FB0939D8E70246069DDBE7CC
:10448000BC650008AE650008B16500080000F07F5B
:1044900001212BE700230593A31C1993A37836E78A
:1044A0000123F8E7199B5E1C19965B7834E70CFB37
:1044B0000E3EAEF1300E3DE719944FF000084FE785
:1044C000692B3FF462AF6E2B7FF4ACAE884919A81C
:1044D00000F098FF00283FF4A5AE199B1B78282B0D
:1044E0000ED11CAA834919A800F09FFF052807D107
:1044F0001D9BDDF870A043F0FF4B4BF4E00B73E61F
:10450000DFF800B255E7069B0798002B08BF2B4643
:10451000102D2C46A8EB0208A8BF10240693FBF729
:10452000F1FF092C82468B4613DD734B03EBC4036A
:1045300053E91223FCF75CF8064648460F46FBF7A2
:10454000E1FF02460B4630463946FBF79FFE8246A6
:104550008B460F2D36DCB8F1000F3FF445AE24DD5D
:10456000B8F1160F0BDC644D05EBC808D8E9000163
:1045700052465B46FCF73CF882468B4634E6C5F172
:10458000250398451EDC5C4CC5F10F0504EBC50105
:10459000A8EB050552465B46D1E9000104EBC504D2
:1045A000FCF726F8D4E90023E4E718F1160F09DB3D
:1045B000514DA5EBC808D8E9002350465946FCF7F1
:1045C00041F9D9E72C1B4444002C70DD14F00F0393
:1045D0000AD0494901EBC30152465B46D1E90001CB
:1045E000FCF706F882468B4634F00F0450D0B4F541
:1045F0009A7F23DD0024254607940694049ADFF869
:1046000008B1222313604FF0000A079B002B3FF4F0
:10461000EBAD1A99049800F0F0FF0699049800F0A9
:10462000ECFF2946049800F0E8FF0799049800F091
:10463000E4FF2146049800F0E0FFD5E52F4E00236B
:1046400024115046594699463746012C23DC0BB1BC
:1046500082468B46ABF1547B07EBC90752465B465B
:10466000D7E90001FBF7C4FF21F000438B460A465F
:104670001B0D23491B058B428246BBD8A1F5801137
:104680008B4286BFDFF884B04FF0FF3A02F1547BD3
:10469000002305936DE0E20704D5D6E90023FBF77C
:1046A000A7FF012309F1010964100836CDE7EFD017
:1046B000644214F00F020AD00F4B03EBC2035046C2
:1046C0005946D3E90023FCF7BDF882468B462411F6
:1046D000DED01F2C1CDD0024254607940694049A86
:1046E00022234FF0000A4FF0000B13608DE700BF4C
:1046F000B7650008D0650008486600082066000815
:104700000000A07C0000F8FF0000F07FFFFFEF7FBB
:1047100014F0100318BF6A23A04E05935046594663
:104720000023002C00F306810BB182468B46059BCB
:10473000BBB1CBF30A53C3F16B03002B594610DD19
:104740001F2B40F30181342BDEBF203B4FF0FF32A3
:1047500002FA03F34FF0000ACCBF4FF05C7B03EA90
:10476000010B0022002350465946FCF7A9F9002806
:10477000B1D1079B0093069A0A9904982B4600F042
:104780008EFF079000283FF435AFB8F1000FC8F155
:104790000003A8BF00230E93002428EAE8730F93B8
:1047A0002546079B0498596800F0F3FE0690002800
:1047B0003FF424AF079B1A69023203F10C01920007
:1047C0000C3000F0D9FE1CAA1BA94BEC10AB0498CE
:1047D000CDE90AAB01F014FA1A9000283FF40EAFAD
:1047E0000121049800F0E7FF054600283FF406AFDA
:1047F0001B9E1C9A002EABBF0E9B0F9B0F9FDDF8DC
:104800003880ACBF03EB06089F1B059BF61A1644C5
:10481000634B013E9E42C2F1360280F2A8809B1B90
:104820001F2BA2EB03024FF0010900F3948009FA59
:1048300003F31493002608EB0209059BC8451744AF
:104840001F444346A8BF4B46BB42A8BF3B46002B74
:10485000C2BFA9EB0309FF1AA8EB03080E9BBBB16B
:1048600029461A46049801F03DF8054600283FF411
:10487000C5AE01461A9A049800F0A6FF08900028D9
:104880003FF4BCAE1A99049800F0B7FE089B1A9347
:10489000B9F1000F6FDC0F9B002B75D1002F08DDE5
:1048A0003A460699049801F06BF8069000283FF408
:1048B000A5AEB8F1000F08DD29464246049801F084
:1048C0005FF8054600283FF499AE069A1A990498B5
:1048D00001F0C1F8044600283FF490AEC368089385
:1048E0000023C360294601F09CF800285ADA089B8F
:1048F000E3B9BAF1000F19D1CBF31303B3B92BF01D
:1049000000431B0D1B05B3F1D66F0FD9636913B9B3
:104910002369012B0ADD21460122049801F030F8B9
:104920002946044601F07DF800286CDC059B002B2D
:1049300076D16EE6E20704D5D6E90023FBF758FEF0
:10494000012364100836ECE64FF0FF3202FA03F35D
:1049500003EA0A0A05E7C6F17F4606F57F0606F573
:104960007B46E23609FA06F6CDF8509063E701235C
:10497000002614935FE74A461A99049801F000F85C
:104980001A90002887D139E60F9A0699049800F00A
:10499000A9FF0690002881D130E600BFE865000835
:1049A00002FCFFFF40F08680089ACBF3130332B37A
:1049B000AD4A9342594652D1059B5046D3B1AB4ABA
:1049C0000A40B2F1D46F4FF0FF3716D8120DC2F182
:1049D0006B0307FA03F3834241D1A54A914202D106
:1049E00001333FF40BAEA14B0B4003F5801B4FF09E
:1049F000000A9BE74FF0FF33EDE73B46EBE773BB65
:104A0000BAF1000F2BD12BF00043059A1B0D1B05AB
:104A1000E2B1B3F1D66F19DCB3F15C7F7FF75FAE23
:104A2000944B0D9300230C9350465946DDE90C231B
:104A3000FBF7DEFD82468B4600297FF4EAAD0028B5
:104A40007FF4E7AD049A22231360E2E5A3F5801317
:104A50006FEA135B6FEA0B5B4FF0FF3A66E79EB1BC
:104A600016EA0B0F3FF462AF089B059A5046594671
:104A700073B1FFF75DFB02460B46DDE90A01FBF768
:104A800005FC82468B4651E7149B13EA0A0FE9E7BF
:104A9000FFF74EFB02460B46DDE90A01FBF7F4FB8C
:104AA0000022002382468B46FCF70AF800287FF498
:104AB00016AE3BE72946204601F0F1F857EC106BA3
:104AC00000224FF0804310EE100A3946FCF70CF834
:104AD000002874D0089B002B46D0DFF89C914FF043
:104AE0000008654F0026614B0BEA03031493149AE8
:104AF000624B9A4240F0CA80DDE90A23ABF1547B55
:104B00004BEC10ABCDE90C2301F004F8404653EC1C
:104B1000102B4946FBF76CFD52465B46FBF7B6FB94
:104B2000524A574B0A409A4282465CD90D9A03F189
:104B300054739A4203D10C9B01333FF45FADDFF80D
:104B400030B14FF0FF3A1A99049800F056FD0699DB
:104B5000049800F052FD2946049800F04EFD2146CD
:104B6000049800F04AFD1CE6BAF1000F18D1CBF30F
:104B70001303E3B90022404B30463946FBF7AAFF46
:104B8000D0B93046394600223E4BFBF731FD064690
:104B90000F4607F1004316961793DDE91689A2E741
:104BA000BAF1010F03D1BBF1000F3FF498AD4FF004
:104BB0000008DFF8D49094E70026324FE9E7314B44
:104BC000304639460022FBF713FD089B06460F4688
:104BD00033B901F1004310901193DDE9108982E7A8
:104BE000CDE91067F9E701F1547B059B002BAAD1B1
:104BF0002BF000431B0D149A1B059A42D846A2D1F4
:104C000039463046FBF7A4FFFBF78CFC0B46024607
:104C100039463046FBF738FB089B06460F4633B94A
:104C2000BAF1000F03D1CBF31303002B68D00AA312
:104C3000D3E9002330463946FBF74CFF00287FF4C8
:104C4000E8AC07A3D3E9002330463946FBF760FF01
:104C500000283FF478AFDCE49535A094FFFFDF3FF8
:104C600035E5AF350000E03FFFFF0F000000F07FAB
:104C7000FFFFEF7F000050390000F03F0000E07FB1
:104C8000FFFF9F7C0000E03F0000F0BF059B1BB3CF
:104C9000149BB3F1D46F1FD825A3D3E9002330466A
:104CA0003946FBF721FF90B139463046FBF778FFD4
:104CB000002808BF0120FBF725FC089B06460F468D
:104CC000DBB901F1004312901393DDE91289149AC4
:104CD00009F1D663A3EB02099DED0A0B00F01AFF60
:104CE000404653EC102B4946FBF782FCDDE90A23D2
:104CF000FBF7CCFA82468B4677E7CDE91267E4E70B
:104D00000DA3D3E90023FBF7E5FEA1E700230993F8
:104D1000159A199B1360FFF76BBA652B4FF00002D1
:104D20003FF4B6AB15460121FFF7DCBAAFF30080C4
:104D30000000C0FFFFFFDF419535A094FFFFCF3F8C
:104D40002DE97043244E254A3468236A2DED028BE9
:104D5000002B08BF13460A4601462046FFF704FA17
:104D600055EC104B10EE102A2B4610EE100A294677
:104D7000FBF7D8FE30B1BDEC028B0020BDE87043DC
:104D800001F0E8BA20462946FBF72AFF08EE100A90
:104D9000DFED137AB0EEC87AB4EE677AF1EE10FA6E
:104DA00014DD25F000494FF0FF320E4B20464946F6
:104DB000FBF7B8FE38B94FF0FF320A4B20464946A0
:104DC000FBF792FE10B1336822221A60B0EE480A57
:104DD000BDEC028BBDE8708368010020CC0100208F
:104DE000FFFF7F7FFFFFEF7F2DE9F0478046894679
:104DF00092461E460F463D46089815F8014B00F0B6
:104E0000A4FB2044437813F008030AD12D2C0AD1C7
:104E10002C780123BD1C5EB1102E13D1302C09D08B
:104E200010E02F46E7E72B2C04BF2C78BD1CF2E7DF
:104E3000302C25D12A7802F0DF02582A4AD16C782A
:104E4000102602354FF0FF310027B1FBF6F106FBCB
:104E500001FE6FEA0E0E3846A4F13002092A11D87D
:104E60001446A6421DDD002F18DB814216D301D166
:104E7000A64513DB00FB0640012715F8014BEBE7C5
:104E80000A26DFE7A4F14102192A01D8373CE8E7F6
:104E9000A4F16102192A04D8573CE2E74FF0FF372A
:104EA000EBE7002F09DA2223C8F800304FF0FF307B
:104EB000BAF1000F07D1BDE8F08703B14042BAF163
:104EC000000F0CD027B1013DCAF80050BDE8F087B3
:104ED0004D46F9E73024002EB4D10826B2E7BDE8EC
:104EE000F0870000084B37B51C68084D236A002B7B
:104EF00008BF2B46009313460A4601462046FFF79B
:104F000073FF03B030BD00BF68010020CC0100205A
:104F1000F0B506694B11B34200F114052BDA11F01C
:104F20001F0105EB860605EB830208D12946B24234
:104F30000B4610D252F8043B41F8043BF7E755F812
:104F40002340C1F1200E0432CC402B46B24208D39C
:104F50001C6004B104335B1B9B10036103B9436104
:104F6000F0BD176807FA0EF73C4343F8044B52F8BC
:104F7000044BCC40EAE72B46EDE7A0F13003092BC8
:104F800002D82038C0B27047A0F16103052B01D8C8
:104F90004738F7E7A0F14103052B01D82738F1E79F
:104FA000002070472DE9F04F8BB08A46029016988A
:104FB0000693904600F0CCFA036803931846FBF77B
:104FC00007F9039B019003444FF0000B13F8013CD9
:104FD0000793DAF8003002331F4613F8010B30282C
:104FE0006CD0FFF7CAFF044600286AD1019A0399E2
:104FF000384601F0B5F9002866D1019BF85CFE182F
:10500000FFF7BBFF002862D03346187830281F46D0
:1050100003F10103F9D0FFF7B0FFB0FA80F56D0995
:1050200034464FF0010B3A46164601323078FFF70E
:10503000A4FF0028F8D1019A0399304601F090F9B5
:1050400050B954B9019BF418224616460132307803
:10505000FFF793FF0028F8D10CB1A41BA40033780C
:10506000502B01D0702B40D173782B2B35D02D2BAA
:105070002FD0711C4FF000090878FFF77EFF431E08
:10508000DBB2182B31D8A0F1100211F8010FFFF795
:1050900074FF431EDBB2182B22D9B9F1000F00D0E8
:1050A00052421444CAF800100DB3BBF1000F14BFF4
:1050B0000027062738460BB0BDE8F08F0BF1010B37
:1050C0008AE700252C46AEE73E460125C7E70446A1
:1050D000FBE74FF00109B11CCEE74FF00009FAE7FA
:1050E0000A2303FB0202103ACFE73146DAE7F31B4B
:1050F000013B2946072B49DC029800F04AFA019B44
:1051000000F114094FF0000BC3F101030546CDF87F
:105110001090DA460893B7423BD3049840F804ABAA
:10512000A0EB0900801028614701504600F0F5FA15
:10513000D8F800603F1AB74264DDBF1B39462846E5
:1051400000F0F3FD824678B17B1E591103F01F0277
:105150004FF0010A59F821100AFA02F20A4203D06C
:10516000534546DC4FF0020A39462846FFF7D0FE89
:105170003C44D8F808309C4252DD2946029800F0A1
:105180003CFA149A00231360A32793E701315B10C4
:10519000B0E7731E0593079A16F8013C934218D0A6
:1051A000BBF1200F07D1049BC3F800A004334FF0DC
:1051B000000A0493D34616F8010CFFF7DEFE00F058
:1051C0000F0000FA0BF04AEA000A0BF1040B059BF2
:1051D0000DE0059B089A13449F42E1D81846019AB6
:1051E0000399099301F0BCF8099B0028D8D11E4609
:1051F00091E7B91E284600F098FD0028B2D04FF084
:10520000030AB1E709DAF71B29463A46029800F08B
:10521000B7FBE41B054600F114094FF0000AA8E7AC
:10522000D8F8040084426ADA041BA6422EDCD8F8BF
:105230000C30022B22D0032B24D0012B15D1A642F7
:1052400013D1012E0BDC069AD8F804301360012329
:105250002B61C9F80030149B62271D602AE7711E7C
:10526000284600F062FD0028EDD12946029800F0A2
:10527000C4F9149A0023136050271BE7159B002BD9
:10528000E1D0F2E7159B002BDDD1EEE7671EBAF106
:10529000000F31D127B13946284600F046FD82463D
:1052A0007A11012307F01F0703FA07F759F8223094
:1052B00021461F42284618BF4AF0020A361BFFF754
:1052C00027FED8F804400227BAF1000F45D0D8F8DD
:1052D0000C30022B15D0032B17D0012B09D11AF05B
:1052E000020F06D0D9F800304AEA030A1AF0010F7B
:1052F0000ED147F0100730E04FF0010AD0E7012748
:10530000E2E7159BC3F101031593159B002BF0D029
:10531000D5F8109005F114034FEA890A03EB0A014E
:1053200000201A68B2F1FF3F1CD001321A60022F30
:1053300005F1140338D1D8F80020013A96420AD179
:105340007111012206F01F0653F8213002FA06F609
:105350001E4218BF174647F02007149B1D60069B8E
:105360001C60A7E643F8040B9942DAD8AB6899456C
:1053700012DB69680298013100F00BF92A690232E8
:1053800005F10C01834692000C3000F0F5F8294637
:10539000029800F032F95D462B695A1C05EB830335
:1053A0002A6101225A61C2E72A6991450BDA01217B
:1053B0002846FFF7ADFDD8F8083001349C423FF78E
:1053C000DCAE0127C7E716F01F06FAD09A44C6F1F3
:1053D00020065AF8040C00F0A0F9B042E7DBF0E731
:1053E000C2F10802920070B5C2F120064368046859
:1053F00003FA06F52C43D340046040F8043F88428A
:10540000F4D370BD30B5036811F8014B013314B902
:105410000360012030BD1A78A2F14105192D98BF13
:105420002032A242F0D0002030BD2DE9F04F0B68B1
:1054300001685F1102EB870713F01F0387B018BFE5
:10544000043700253E1F82469046029347F8045CCD
:10545000B14634460195AB464A784B1C039342B3A0
:10546000104605910492FFF788FD002843D1049A65
:105470000599202A18D8019B9B4513DD4C4506D27F
:10548000072D04DC2A4649462046FFF7A9FF44457C
:1054900044D90023A4F1040944F8043CCDF804B035
:1054A0004C461D460399D7E7292A4AD10231CAF84A
:1054B0000010BBF1000F44D04C4506D2072D04DC90
:1054C0002A4649462046FFF78BFF444528D94346E4
:1054D00054F8042B43F8042BA642F9D2002243F8D7
:1054E000042B9E42FBD233681BB9464527D10123CA
:1054F0003360052026E00135082D0BF1010B06DD98
:105500004445CFD9002344F8043C0125043C2268DB
:1055100000F00F0040EA02102060C3E70825C1E751
:10552000029B002BDFD04FF0FF32C3F1200322FAA1
:1055300003F357F8042C1A4047F8042CD3E7043E31
:10554000D1E7042007B0BDE8F08FD0F8EC00704739
:10555000F030704782B001B901A942B14BB1137864
:105560000B601278101C18BF012002B07047104663
:10557000FBE76FF00100F8E710B5431E0A449142C3
:1055800000D110BD11F8014B03F8014FF7E7704748
:10559000704770B5456A04460E463DB91020FEF7C7
:1055A000D7FC6062456085600560C560656AEB6830
:1055B00083B1636ADB6853F82600B8B9012101FAA8
:1055C00006F56A1D9200204600F0D0FB60B14660EF
:1055D00085600EE021220421204600F0C7FB636AAB
:1055E000E860DB68002BE4D1002070BD026843F85E
:1055F000262000230361C36070BD70B5446A06466F
:105600000D463CB91020FEF7A3FC70624460846034
:105610000460C4603DB1736A6A68DB6853F82210A5
:10562000296043F8225070BD2DE9F0410D691F46F5
:1056300006460C4601F1140E0023DEF8000081B28C
:1056400002FB01710F0C000C02FB007089B20133E8
:1056500001EB00419D424FEA10474EF8041BECDC81
:10566000D7B1A3689D4212DB616830460131FFF774
:1056700090FF2269023204F10C01804692000C3046
:10568000FFF77AFF21463046FFF7B7FF444604EBA9
:10569000850301355F6125612046BDE8F0812DE974
:1056A000F8430C4615461F4609220833064693FB6D
:1056B000F2F3002101229A4220DB3046FFF769FF16
:1056C000089B4361092D4FF00103036119DD04F1CB
:1056D0000909C8462C4418F8013B0146303B0A2210
:1056E0003046FFF7A1FFA045F5D1A5F108044C44D1
:1056F0002D1B6319BB4207DBBDE8F8835200013163
:10570000D9E70A340925F3E714F8013B0146303B99
:105710000A223046FFF788FFEBE7020C120403462B
:10572000B2B90304102013F07F4F04BF1B020830EE
:1057300013F0704F04BF1B01043013F0404F04BF3F
:105740009B000230002B06DB5B0003D50130704765
:105750000020E8E720207047036813F007020146A5
:105760000BD0DA0723D4980749BF5B089B080120B8
:105770000B605CBF0B600220704798B2A8B91B0C8D
:10578000102013F0FF0F04BF1B0A08301A0704BFD4
:105790001B0904309A0704BF9B080230DA0702D4C1
:1057A0005B0806D001300B6070471046E9E7002027
:1057B00070472020704710B50C460121FFF7E9FE25
:1057C00001224461026110BD2DE9F74F14460A69B8
:1057D00023699A42B8BF0B468946BCBFA1461C4606
:1057E000D9F81070D4F810A0D9F80830D9F80410FE
:1057F00007EB0A069E42C8BF0131FFF7CAFE00F15F
:10580000140505EB86082B460022434516D304F108
:10581000140209F1140102EB8A0301EB87070193DB
:10582000019C944213460CD8002E03DD58F8043D29
:10583000002B54D0066103B0BDE8F08F43F8042B71
:10584000E3E7B3F800A00432BAF1000F20D0AE466F
:1058500089464FF0000C59F8044BBEF800B0A3B2D3
:105860000AFB03B34FEA144BDEF8004063444FEAEF
:10587000144C0AFB0BC404EB13449BB243EA0443ED
:105880004F454FEA144C4EF8043BE4D8CEF800C024
:1058900032F8029CB9F1000F1FD02B68AE468C463F
:1058A0004FF0000ABCF80040BEF802B009FB04B497
:1058B000A2449BB243EA0A434EF8043B5CF8043B23
:1058C000BEF800401B0C09FB034303EB1A4367457A
:1058D0004FEA134AE6D8CEF800300435A0E7013E7F
:1058E000A2E700002DE9F843154612F00302064630
:1058F0000F4607D0013A214C002354F82220FFF72D
:1059000093FE0746AD1035D0746A3CB91020FEF7FF
:105910001FFB7062446084600460C460D6F8248019
:10592000D8F808404CB940F271213046FFF743FFE8
:105930000023C8F80800044603604FF00008EB0796
:105940000AD5394622463046FFF73EFF39468146A2
:105950003046FFF752FE4F466D100BD0206838B925
:10596000224621463046FFF72FFF2060C0F8008016
:105970000446E4E73846BDE8F88300BF1067000836
:105980002DE9F0470C464FEA621A236949680AEB91
:105990000309A3680746164609F10105AB4231DB4E
:1059A0003846FFF7F6FD0022804600F11403114649
:1059B00052452ADB20692AEAEA7A04F1140116F03A
:1059C0001F0203EB8A0301EB800E22D0C2F1200CF0
:1059D00000200E689640304343F8040B51F8040B46
:1059E0008E4520FA0CF0F4D8186008B109F10205D0
:1059F000013D3846C8F810502146FFF7FEFD4046ED
:105A0000BDE8F08701315B00C8E743F8221001329E
:105A1000CEE7043B51F8042B43F8042F8E45F9D808
:105A2000E6E703690A699B1A30B50CD1920014307D
:105A300014318418114454F8045D51F8042D954232
:105A400003D005D30123184630BDA042F3D3FAE7B3
:105A50004FF0FF33F7E72DE9F0470D4607461146B3
:105A600028461446FFF7DDFF061E08D131463846AA
:105A7000FFF78FFD012303614661BDE8F087A4BFF6
:105A800023462C4638466168A6BF1D4600260126DF
:105A9000FFF77FFD2B69C660266905F1140904F143
:105AA000140202EB860709EB830800F114054FF09E
:105AB000000C52F804AB59F8044B1CFA8AF1A3B25B
:105AC000C91A230CC3EB1A4303EB214389B24FEAF3
:105AD000234CC84541EA0343964645F8043BE8D8C1
